{
  "contractName": "DNSconfig",
  "abi": [
    {
      "constant": true,
      "inputs": [
        {
          "name": "",
          "type": "uint256"
        }
      ],
      "name": "domainName",
      "outputs": [
        {
          "name": "",
          "type": "string"
        }
      ],
      "payable": false,
      "stateMutability": "view",
      "type": "function"
    },
    {
      "constant": true,
      "inputs": [
        {
          "name": "",
          "type": "uint256"
        }
      ],
      "name": "blockedIps",
      "outputs": [
        {
          "name": "",
          "type": "address"
        }
      ],
      "payable": false,
      "stateMutability": "view",
      "type": "function"
    },
    {
      "inputs": [],
      "payable": false,
      "stateMutability": "nonpayable",
      "type": "constructor"
    },
    {
      "constant": false,
      "inputs": [],
      "name": "getLenDns",
      "outputs": [
        {
          "name": "count",
          "type": "uint256"
        }
      ],
      "payable": false,
      "stateMutability": "nonpayable",
      "type": "function"
    },
    {
      "constant": false,
      "inputs": [],
      "name": "getLenBlocked",
      "outputs": [
        {
          "name": "count",
          "type": "uint256"
        }
      ],
      "payable": false,
      "stateMutability": "nonpayable",
      "type": "function"
    },
    {
      "constant": false,
      "inputs": [
        {
          "name": "ipRestrict",
          "type": "address"
        }
      ],
      "name": "setBlockedIp",
      "outputs": [],
      "payable": false,
      "stateMutability": "nonpayable",
      "type": "function"
    },
    {
      "constant": false,
      "inputs": [
        {
          "name": "i",
          "type": "uint256"
        }
      ],
      "name": "getBlockedIp",
      "outputs": [
        {
          "name": "",
          "type": "address"
        }
      ],
      "payable": false,
      "stateMutability": "nonpayable",
      "type": "function"
    },
    {
      "constant": false,
      "inputs": [
        {
          "name": "ipValue",
          "type": "address"
        }
      ],
      "name": "isIpBlocked",
      "outputs": [
        {
          "name": "",
          "type": "bool"
        }
      ],
      "payable": false,
      "stateMutability": "nonpayable",
      "type": "function"
    },
    {
      "constant": false,
      "inputs": [
        {
          "name": "ip",
          "type": "string"
        },
        {
          "name": "domain",
          "type": "string"
        }
      ],
      "name": "addIpDomain",
      "outputs": [],
      "payable": false,
      "stateMutability": "nonpayable",
      "type": "function"
    },
    {
      "constant": false,
      "inputs": [
        {
          "name": "i",
          "type": "uint256"
        }
      ],
      "name": "getDomainName",
      "outputs": [
        {
          "name": "",
          "type": "string"
        }
      ],
      "payable": false,
      "stateMutability": "nonpayable",
      "type": "function"
    },
    {
      "constant": false,
      "inputs": [
        {
          "name": "receiver",
          "type": "address"
        },
        {
          "name": "domain",
          "type": "string"
        }
      ],
      "name": "resolveName",
      "outputs": [
        {
          "name": "dName",
          "type": "string"
        }
      ],
      "payable": false,
      "stateMutability": "nonpayable",
      "type": "function"
    }
  ],
  "bytecode": "0x60806040523480156200001157600080fd5b506040518060400160405280600781526020017f302e302e302e3000000000000000000000000000000000000000000000000000815250600080815481106200005657fe5b90600052602060002001908051906020019062000075929190620000e1565b506040518060400160405280600981526020017f6c6f63616c486f737400000000000000000000000000000000000000000000008152506001600081548110620000bb57fe5b906000526020600020019080519060200190620000da929190620000e1565b5062000190565b828054600181600116156101000203166002900490600052602060002090601f016020900481019282601f106200012457805160ff191683800117855562000155565b8280016001018555821562000155579182015b828111156200015457825182559160200191906001019062000137565b5b50905062000164919062000168565b5090565b6200018d91905b80821115620001895760008160009055506001016200016f565b5090565b90565b610db880620001a06000396000f3fe608060405234801561001057600080fd5b506004361061009e5760003560e01c806362a6b9251161006657806362a6b9251461031e57806374b969311461038c5780638e99e41c14610433578063ba0ea10a146104a1578063da4733c4146104fd5761009e565b806310f9449c146100a35780631f7588f2146100e757806328d0ad561461023b57806352732fdf146102595780635d160cb614610300575b600080fd5b6100e5600480360360208110156100b957600080fd5b81019080803573ffffffffffffffffffffffffffffffffffffffff16906020019092919050505061064f565b005b6101c0600480360360408110156100fd57600080fd5b81019080803573ffffffffffffffffffffffffffffffffffffffff1690602001909291908035906020019064010000000081111561013a57600080fd5b82018360208201111561014c57600080fd5b8035906020019184600183028401116401000000008311171561016e57600080fd5b91908080601f016020809104026020016040519081016040528093929190818152602001838380828437600081840152601f19601f8201169050808301925050505050505091929192905050506106b8565b6040518080602001828103825283818151815260200191508051906020019080838360005b838110156102005780820151818401526020810190506101e5565b50505050905090810190601f16801561022d5780820380516001836020036101000a031916815260200191505b509250505060405180910390f35b61024361095d565b6040518082815260200191505060405180910390f35b6102856004803603602081101561026f57600080fd5b810190808035906020019092919050505061096a565b6040518080602001828103825283818151815260200191508051906020019080838360005b838110156102c55780820151818401526020810190506102aa565b50505050905090810190601f1680156102f25780820380516001836020036101000a031916815260200191505b509250505060405180910390f35b610308610a23565b6040518082815260200191505060405180910390f35b61034a6004803603602081101561033457600080fd5b8101908080359060200190929190505050610a2f565b604051808273ffffffffffffffffffffffffffffffffffffffff1673ffffffffffffffffffffffffffffffffffffffff16815260200191505060405180910390f35b6103b8600480360360208110156103a257600080fd5b8101908080359060200190929190505050610a70565b6040518080602001828103825283818151815260200191508051906020019080838360005b838110156103f85780820151818401526020810190506103dd565b50505050905090810190601f1680156104255780820380516001836020036101000a031916815260200191505b509250505060405180910390f35b61045f6004803603602081101561044957600080fd5b8101908080359060200190929190505050610b29565b604051808273ffffffffffffffffffffffffffffffffffffffff1673ffffffffffffffffffffffffffffffffffffffff16815260200191505060405180910390f35b6104e3600480360360208110156104b757600080fd5b81019080803573ffffffffffffffffffffffffffffffffffffffff169060200190929190505050610b65565b604051808215151515815260200191505060405180910390f35b61064d6004803603604081101561051357600080fd5b810190808035906020019064010000000081111561053057600080fd5b82018360208201111561054257600080fd5b8035906020019184600183028401116401000000008311171561056457600080fd5b91908080601f016020809104026020016040519081016040528093929190818152602001838380828437600081840152601f19601f820116905080830192505050505050509192919290803590602001906401000000008111156105c757600080fd5b8201836020820111156105d957600080fd5b803590602001918460018302840111640100000000831117156105fb57600080fd5b91908080601f016020809104026020016040519081016040528093929190818152602001838380828437600081840152601f19601f820116905080830192505050505050509192919290505050610c65565b005b60028190806001815401808255809150509060018203906000526020600020016000909192909190916101000a81548173ffffffffffffffffffffffffffffffffffffffff021916908373ffffffffffffffffffffffffffffffffffffffff1602179055505050565b60606106c383610b65565b156108a457606060006106d4610a23565b905060008090505b818110156108a0576106ed81610a70565b9250826040516020018082805190602001908083835b602083106107265780518252602082019150602081019050602083039250610703565b6001836020036101000a03801982511681845116808217855250505050505090500191505060405160208183030381529060405280519060200120856040516020018082805190602001908083835b602083106107985780518252602082019150602081019050602083039250610775565b6001836020036101000a03801982511681845116808217855250505050505090500191505060405160208183030381529060405280519060200120141561089357600081815481106107e657fe5b906000526020600020018054600181600116156101000203166002900480601f0160208091040260200160405190810160405280929190818152602001828054600181600116156101000203166002900480156108845780601f1061085957610100808354040283529160200191610884565b820191906000526020600020905b81548152906001019060200180831161086757829003601f168201915b50505050509350505050610957565b80806001019150506106dc565b5050505b600080815481106108b157fe5b906000526020600020018054600181600116156101000203166002900480601f01602080910402602001604051908101604052809291908181526020018280546001816001161561010002031660029004801561094f5780601f106109245761010080835404028352916020019161094f565b820191906000526020600020905b81548152906001019060200180831161093257829003601f168201915b505050505090505b92915050565b6000600280549050905090565b6001818154811061097757fe5b906000526020600020016000915090508054600181600116156101000203166002900480601f016020809104026020016040519081016040528092919081815260200182805460018160011615610100020316600290048015610a1b5780601f106109f057610100808354040283529160200191610a1b565b820191906000526020600020905b8154815290600101906020018083116109fe57829003601f168201915b505050505081565b60008080549050905090565b600060028281548110610a3e57fe5b9060005260206000200160009054906101000a900473ffffffffffffffffffffffffffffffffffffffff169050919050565b606060018281548110610a7f57fe5b906000526020600020018054600181600116156101000203166002900480601f016020809104026020016040519081016040528092919081815260200182805460018160011615610100020316600290048015610b1d5780601f10610af257610100808354040283529160200191610b1d565b820191906000526020600020905b815481529060010190602001808311610b0057829003601f168201915b50505050509050919050565b60028181548110610b3657fe5b906000526020600020016000915054906101000a900473ffffffffffffffffffffffffffffffffffffffff1681565b600080610b7061095d565b9050600080600090505b82811015610c5857610b8b81610a2f565b915081604051602001808273ffffffffffffffffffffffffffffffffffffffff1673ffffffffffffffffffffffffffffffffffffffff1660601b81526014019150506040516020818303038152906040528051906020012085604051602001808273ffffffffffffffffffffffffffffffffffffffff1673ffffffffffffffffffffffffffffffffffffffff1660601b8152601401915050604051602081830303815290604052805190602001201415610c4b5760019350505050610c60565b8080600101915050610b7a565b506000925050505b919050565b6000829080600181540180825580915050906001820390600052602060002001600090919290919091509080519060200190610ca2929190610ce7565b50506001819080600181540180825580915050906001820390600052602060002001600090919290919091509080519060200190610ce1929190610ce7565b50505050565b828054600181600116156101000203166002900490600052602060002090601f016020900481019282601f10610d2857805160ff1916838001178555610d56565b82800160010185558215610d56579182015b82811115610d55578251825591602001919060010190610d3a565b5b509050610d639190610d67565b5090565b610d8991905b80821115610d85576000816000905550600101610d6d565b5090565b9056fea165627a7a7230582027d60c62ddc492887169119073d77057f279fbc1cfce4830a42d853205819ed80029",
  "source": "pragma solidity >=0.4.25 <0.6.0;\n\nimport \"./ConvertLib.sol\";\n\n// This is just a simple example of a coin-like contract.\n// It is not standards compatible and cannot be expected to talk to other\n// coin/token contracts. If you want to create a standards-compliant\n// token, see: https://github.com/ConsenSys/Tokens. Cheers!\n\ncontract DNSconfig {\n\t//mapping (address => uint) dnsAddress;\n\n\tstring[] private dnsAddress;\n\tstring[] public domainName;\n\taddress[] public blockedIps;\n\n\t//event Transfer(address indexed _from, address indexed _to, uint256 _value);\n\n\tconstructor() public {\n\t\tdnsAddress[0] = \"0.0.0.0\";\n\t\tdomainName[0] = \"localHost\";\n\t}\n\n\tfunction getLenDns() public returns(uint count) {\n    \treturn dnsAddress.length;\n\t}\n\n\tfunction getLenBlocked() public returns(uint count) {\n    \treturn blockedIps.length;\n\t}\n\n\tfunction setBlockedIp(address ipRestrict) public {\n\t\tblockedIps.push(ipRestrict);\n\t}\n\n\tfunction getBlockedIp(uint i) public returns(address){\n\t\treturn blockedIps[i];\n\t}\n\n\tfunction isIpBlocked(address ipValue) public returns(bool){\n\t\tuint len = getLenBlocked();\n\t\taddress curr;\n\t\tfor(uint i =0; i< len; i++){\n\t\t\tcurr = getBlockedIp(i);\n\t\t\tif(keccak256(abi.encodePacked((ipValue))) == keccak256(abi.encodePacked((curr))) ){\n\t\t\t\treturn true;\n\t\t\t}\n\t\t}\n\n\t\treturn false;\n\t}\n\n\tfunction addIpDomain(string memory ip, string memory domain) public {\n\t\tdnsAddress.push(ip);\n\t\tdomainName.push(domain);\n\t}\n\n\tfunction getDomainName(uint i) public returns(string memory) {\n\t\treturn (domainName[i]);\n\t}\n\n\n\tfunction resolveName(address receiver, string memory domain) public returns(string memory dName) {\n\t\t/*if (balances[msg.sender] < amount) return false;\n\t\tbalances[msg.sender] -= amount;\n\t\tbalances[receiver] += amount;\n\t\temit Transfer(msg.sender, receiver, amount);\n\t\treturn true;*/\n\t\t//TODO: get ip from address\n\t\tif(isIpBlocked(receiver)){\n\t\t\tstring memory curr;\n\t\t\tuint len = getLenDns();\n\t\t\tfor(uint i = 0 ; i < len ; i++) {\n\t\t\t\tcurr = getDomainName(i);\n\t\t\t\tif(keccak256(abi.encodePacked((domain))) == keccak256(abi.encodePacked((curr))) ){\n\t\t\t\t\treturn dnsAddress[i];\n\t\t\t\t}\n\t\t\t}\n\t\t}\n\t\treturn dnsAddress[0];\n\t}\n\n\t/*function getBalanceInEth(address addr) public view returns(uint){\n\t\treturn ConvertLib.convert(getBalance(addr),2);\n\t}\n\n\tfunction getBalance(address addr) public view returns(uint) {\n\t\t//return balances[addr];\n\t}*/\n}\n",
  "sourcePath": "/Users/kavyaub/truffle/contracts/DNSconfig.sol",
  "compiler": {
    "name": "solc",
    "version": "0.5.8+commit.23d335f2.Emscripten.clang"
  },
  "schemaVersion": "3.0.10",
  "updatedAt": "2019-07-19T06:01:53.460Z",
  "devdoc": {
    "methods": {}
  },
  "userdoc": {
    "methods": {}
  }
}